S016000055534152545F4558414D504C45332E73726563E1
S1130000FDC0000012C1000010C100000EC10000BC
S11300100CC100000AC1000008C1000006C10000B4
S113002004C1000002C1000000C10000FEC00000C5
S1130030FCC00000FAC00000F8C00000F6C00000D8
S1130040F4C00000F2C00000F0C00000EEC00000E8
S1130050ECC00000EAC00000E8C00000E6C00000F8
S1130060E4C00000E2C00000E0C00000DEC0000008
S1130070DCC00000DAC00000D8C00000D6C0000018
S1130080D4C00000D2C00000D0C00000CEC0000028
S1130090CCC00000CAC00000C8C00000C6C0000038
S11300A0C4C00000C2C00000C0C00000BEC0000048
S11300B0BCC00000BAC00000B8C00000B6C0000058
S11300C0B4C00000B2C00000B0C00000AEC0000068
S11300D0ACC00000AAC00000A8C00000A6C0000078
S11300E0A4C00000A2C00000A0C000009EC0000088
S11300F09CC000009AC0000098C0000096C0000098
S113010094C0000092C0000090C000008EC00000A7
S11301108CC000008AC0000088C0000086C00000B7
S113012084C0000082C0000080C000007EC00000C7
S11301307CC000007AC0000078C0000076C00000D7
S113014074C0000072C0000070C000006EC00000E7
S11301506CC000006AC0000068C0000066C00000F7
S113016064C0000062C0000060C000005EC0000007
S11301705CC000005AC0000058C0000056C0000017
S113018054C0000052C0000050C000004EC0000027
S11301904CC000004AC0000048C0000046C0000037
S11301A044C0000042C0000040C000003EC0000047
S11301B03CC000003AC0000038C0000036C0000057
S11301C034C0000032C0000030C000002EC0000067
S11301D02CC000002AC0000028C0000026C0000077
S11301E024C0000022C0000020C000001EC0000087
S11301F01CC000001AC0000018C0000011241FBE5B
S1130200CFEFCDBFDFE5DEBF00E00CBF10E2A0E022
S1130210B0E2E0E9F8E000E00BBF02C007900D9205
S1130220AE32B107D9F7B4D231C3EACE8FEF80939F
S113023070008093710080937200809373008093A8
S1130240740080937500809376000895CF93DF93B4
S11302501F92CDB7DEB79FB79983F8949981E82FA1
S1130260F0E0E059FF4F60958081682360839FBF71
S11302700F90DF91CF910895CF93DF93FC0120E09D
S113028030E0C62FD0E0DE01022E02C0B595A7955E
S11302900A94E2F7A0FD508B2F5F3F4F3196283030
S11302A0310589F740FF0AC041FF03C0FC016583A3
S11302B002C0FC016683FC01618302C0FC0162830D
S11302C0DF91CF91089543E050E061E080EE97E044
S11302D0D3DF43E050E062E080EE97E0CDDF43E01F
S11302E050E060E180E696E0C7DF41E050E460E280
S11302F080E696E0C1DF40E05BE160E280E896E002
S1130300BBDF40E05BE162E080EA96E0B5DF40E01D
S11303105BE164E080EA96E0AFDF43E050E068E050
S113032080E496E0A9DF40E050E064E080E496E0F9
S1130330A3CF0895FC01918195FFFDCF608380E0F8
S113034090E00895FC0191819923ECF78081089550
S11303504F925F926F927F928F929F92AF92BF92D1
S1130360EF92FF920F931F93CF937C014A015B019D
S113037028013901FC01848182FF16C0D901C8011A
S1130380689412F8B695A795979587951694D1F722
S1130390B901A801032E36E17695679557954795DF
S11303A03A95D1F7302D15C0D901C801689413F8D6
S11303B0B695A795979587951694D1F7B901A80195
S11303C0032E37E176956795579547953A95D1F77A
S11303D0302D88159905AA05BB0508F4A2C084161A
S11303E09506A606B70608F49EC0F701848182FD2F
S11303F004C0880C991CAA1CBB1CC301B201A50132
S1130400940122D22F3F31054105510508F48DC0D6
S11304108FEF90E0A0E0B0E0C9EF05C028173907DE
S11304204A075B0758F0880F991FAA1FBB1FCD3FCF
S11304300CF48160CF5FC73089F74DC0CC230CF03A
S11304404AC0D501C401880F991FAA1FBB1F880F7A
S1130450991FAA1FBB1F880F991FAA1FBB1F481AE9
S1130460590A6A0A7B0ACE3FECF48DEF9FEF8C1B8E
S11304709109C7FD939504C0440C551C661C771C58
S11304808A95D2F7D501C401B695A7959795879516
S1130490BC01CD01640D751D861D971DA501940138
S11304A0D3D135C083E08C0FA501940104C0220F81
S11304B0331F441F551F8A95D2F7DA01C901B69537
S11304C0A79597958795BC01CD01640D751D861D73
S11304D0971DBAD11CC083E08C0FA501940104C000
S11304E0220F331F441F551F8A95D2F7DA01C90121
S11304F0B695A79597958795BC01CD01640D751D9B
S1130500861D971DA1D12150310941095109832F1D
S11305108F70C295C07FC82BF701C783268381E003
S113052018C080E016C080E014C0D501C401880F53
S1130530991FAA1FBB1F880F991FAA1FBB1F880FD3
S1130540991FAA1FBB1F481A590A6A0A7B0AC9EFD6
S11305508CCFCF911F910F91FF90EF90BF90AF90F0
S11305609F908F907F906F905F904F9008950F931E
S11305701F93CF93DF93EC018B01009709F4E6C03E
S1130580803C910521F460E180E060DEDFC0C0388A
S113059081E0D80721F462E080E058DED7C0C115BD
S11305A0E1E0DE0721F461E080E050DECFC0C03836
S11305B0F3E0DF0721F461E081E048DEC7C0C03921
S11305C083E0D80721F461E082E040DEBFC0C115BA
S11305D0E2E0DE0721F462E081E038DEB7C0C03437
S11305E0F2E0DF0721F462E082E030DEAFC0C03227
S11305F083E0D80721F464E082E028DEA7C0C115B7
S1130600E8E0DE0721F461E083E020DE9FC0C1154D
S1130610F9E0DF0721F461E084E018DE97C0C1153A
S11306208AE0D80721F461E085E010DE8FC0C115AF
S1130630EBE0DE0721F461E086E008DE87C0C03429
S1130640F8E0DF0721F462E083E000DE7FC0C0341D
S113065089E0D80721F462E084E0F8DD77C0C03493
S1130660EAE0DE0721F462E085E0F0DD6FC0C03926
S1130670F8E0DF0721F464E083E0E8DD67C0C03917
S113068089E0D80721F464E084E0E0DD5FC0C0398C
S1130690EAE0DE0721F464E085E0D8DD57C0C03924
S11306A0FBE0DF0721F464E086E0D0DD4FC0C03C0E
S11306B088E0D80721F468E083E0C8DD47C0C03C87
S11306C0E9E0DE0721F468E084E0C0DD3FC0C03A21
S11306D0F8E0DF0721F460E183E0B8DD37C0C03A19
S11306E089E0D80721F460E184E0B0DD2FC0C03A8E
S11306F0EAE0DE0721F460E185E0A8DD27C0C03A26
S1130700FBE0DF0721F460E186E0A0DD1FC0C03B11
S113071088E0D80721F460E283E098DD17C0C03B8D
S1130720E9E0DE0721F460E284E090DD0FC0C03828
S1130730F4E0DF0721F460E483E088DD07C0C03A19
S113074084E0D80719F460E485E080DD8D818F733F
S11307508D83F80195818481892B9681911198E08C
S1130760892B8D83F801408151816281738100E876
S113077014E82EE130E0CE01EBDD9C8198609C838F
S11307809C8190619C83DF91CF911F910F9108957B
S1130790CF93DF93CDB7DEB7A797CDBFDEBF87E298
S11307A0E7E0F0E28E010F5F1F4FD80101900D9238
S11307B08A95E1F788DD3ADD60E070E280EA98E04E
S11307C0D6DEB02EC12E7E0185E2E80EF11CF801C2
S11307D061918F0180EA98E0ADDDE016F106B9F78A
S11307E080EA98E0AFDD8D3061F40B2D1C2DF8010B
S11307F061918F0180EA98E09DDDE016F106B9F77A
S113080004C080EA98E09EDDD82E6D2D80EA98E041
S113081091DD6BE280EA98E08DDD80EA98E092DD7C
S1130820182F682F80EA98E085DD6DE380EA98E070
S113083081DD6D2D610F605380EA98E07BDD6DE012
S113084080EA98E077DDCCCFA1E21A2EAA1BBB1B6D
S1130850FD010DC0AA1FBB1FEE1FFF1FA217B30788
S1130860E407F50720F0A21BB30BE40BF50B661F9E
S1130870771F881F991F1A9469F760957095809562
S113088090959B01AC01BD01CF010895F894FFCF71
S1130890802500000300000A0D456E746572207403
S11308A06865206E756D6265727320796F75207747
S11108B0616E7420746F206164643A0A200043
S9030000FC
