:10000000FDC0000012C1000010C100000EC10000C0
:100010000CC100000AC1000008C1000006C10000B8
:1000200004C1000002C1000000C10000FEC00000C9
:10003000FCC00000FAC00000F8C00000F6C00000DC
:10004000F4C00000F2C00000F0C00000EEC00000EC
:10005000ECC00000EAC00000E8C00000E6C00000FC
:10006000E4C00000E2C00000E0C00000DEC000000C
:10007000DCC00000DAC00000D8C00000D6C000001C
:10008000D4C00000D2C00000D0C00000CEC000002C
:10009000CCC00000CAC00000C8C00000C6C000003C
:1000A000C4C00000C2C00000C0C00000BEC000004C
:1000B000BCC00000BAC00000B8C00000B6C000005C
:1000C000B4C00000B2C00000B0C00000AEC000006C
:1000D000ACC00000AAC00000A8C00000A6C000007C
:1000E000A4C00000A2C00000A0C000009EC000008C
:1000F0009CC000009AC0000098C0000096C000009C
:1001000094C0000092C0000090C000008EC00000AB
:100110008CC000008AC0000088C0000086C00000BB
:1001200084C0000082C0000080C000007EC00000CB
:100130007CC000007AC0000078C0000076C00000DB
:1001400074C0000072C0000070C000006EC00000EB
:100150006CC000006AC0000068C0000066C00000FB
:1001600064C0000062C0000060C000005EC000000B
:100170005CC000005AC0000058C0000056C000001B
:1001800054C0000052C0000050C000004EC000002B
:100190004CC000004AC0000048C0000046C000003B
:1001A00044C0000042C0000040C000003EC000004B
:1001B0003CC000003AC0000038C0000036C000005B
:1001C00034C0000032C0000030C000002EC000006B
:1001D0002CC000002AC0000028C0000026C000007B
:1001E00024C0000022C0000020C000001EC000008B
:1001F0001CC000001AC0000018C0000011241FBE5F
:10020000CFEFCDBFDFE5DEBF00E00CBF10E2A0E026
:10021000B0E2E0E2FEE000E00BBF02C007900D920A
:10022000A036B107D9F754D5F9C5EACE04C061505C
:100230007109810991096115710581059105B9F768
:100240000895BF92CF92DF92EF92FF920F931F9388
:10025000CF93DF931F92CDB7DEB700E016E068942E
:10026000FF24F3F8F801F6826EE070E080E090E0A1
:10027000DDDFF801F5826EE070E080E090E0D6DF2F
:100280000F2EFBE2BF2EF02DB98280EA99E013D247
:10029000C12CD12C760100E412E42FE030E043E0E1
:1002A000BE016F5F7F4F80EA99E034D200E616E02E
:1002B000FF24F394F801F682B982BE016F5F7F4F8D
:1002C00080EA99E041D2F801F682E0EAF9E0818122
:1002D00085FFFDCF80EA8093A009E0EAF9E0818103
:1002E00086FFFDCFE0EAF9E080E481838081BE01F2
:1002F0006F5F7F4F80EA99E03DD28BE28983BE0138
:100300006F5F7F4F80EA99E01FD281E0809366069D
:10031000E0EAF9E0818185FFFDCF86EA8093A009BC
:10032000E0EAF9E0818186FFFDCFE0EAF9E080E4D0
:1003300081838081BE016F5F7F4F80EA99E01AD28E
:100340008BE28983BE016F5F7F4F80EA99E0FCD129
:1003500081E080936606E0EAF9E0818185FFFDCFC8
:1003600088EC8093A009E0EAF9E0818186FFFDCF67
:10037000E0EAF9E080E481838081BE016F5F7F4F16
:1003800080EA99E0F7D18BE28983BE016F5F7F4FEE
:1003900080EA99E0D9D181E080936606E0EAF9E04D
:1003A000818185FFFDCF82EA8093A009E0EAF9E030
:1003B000818186FFFDCFE0EAF9E080E481838081DE
:1003C000BE016F5F7F4F80EA99E0D4D18BE28983D1
:1003D000BE016F5F7F4F80EA99E0B6D181E08093E4
:1003E0006606E0EAF9E0818185FFFDCF8FE2809328
:1003F000A009E0EAF9E0818186FFFDCFE0EAF9E0BB
:1004000080E481838081BE016F5F7F4F80EA99E045
:10041000B1D18BE28983BE016F5F7F4F80EA99E0A3
:1004200093D181E080936606E0EAF9E0818185FF5F
:10043000FDCF88EF8093A009E0EAF9E0818186FF93
:10044000FDCFE0EAF9E080E481838081BE016F5F47
:100450007F4F80EA99E08ED18BE28983BE016F5F86
:100460007F4F80EA99E070D181E080936606E0EAF0
:10047000F9E0818185FFFDCF1092A009E0EAF9E063
:10048000818186FFFDCFE0EAF9E080E4818380810D
:10049000BE016F5F7F4F80EA99E06CD18BE2898368
:1004A000BE016F5F7F4F80EA99E04ED181E080937B
:1004B0006606E0EAF9E0818185FFFDCF81E2809365
:1004C000A009E0EAF9E0818186FFFDCFE0EAF9E0EA
:1004D00080E481838081BE016F5F7F4F80EA99E075
:1004E00049D18BE28983BE016F5F7F4F80EA99E03B
:1004F0002BD181E080936606E0EAF9E0818185FFF7
:10050000FDCF81E88093A009E0EAF9E0818186FFD0
:10051000FDCFE0EAF9E080E481838081BE016F5F76
:100520007F4F80EA99E026D18BE28983BE016F5F1D
:100530007F4F80EA99E008D181E080936606E0EA87
:10054000F9E0818185FFFDCF81E28093A009E0EA97
:10055000F9E0818186FFFDCFE0EAF9E080E4818364
:100560008081BE016F5F7F4F80EA99E003D18BE20B
:100570008983BE016F5F7F4F80EA99E0E5D081E01B
:1005800080936606E0EAF9E0818185FFFDCF8FEA7E
:100590008093A009E0EAF9E0818186FFFDCFE0EADF
:1005A000F9E080E481838081BE016F5F7F4F80EA44
:1005B00099E0E0D00F90DF91CF911F910F91FF90C4
:1005C000EF90DF90CF90BF900895CF93DF931F926D
:1005D0001F92CDB7DEB78FEF8093700080937100CC
:1005E00080937200809373008093740080937500F1
:1005F000809376006CE081E490E021D18FB78A830C
:10060000F8949A81E0E5F0E08081826080839FBF6A
:10061000818181FFFDCF61E080E490E010D18FB750
:100620008983F8949981E0E5F0E080818E7F808372
:100630009FBF0F900F90DF91CF910895CF93DF93DD
:100640001F92CDB7DEB79FB79983F8949981E82FB1
:10065000F0E0E059FF4F60958081682360839FBF81
:100660000F90DF91CF910895CF93DF93FC0120E0AD
:1006700030E0C62FD0E0DE01022E02C0B595A7956E
:100680000A94E2F7A0FD508B2F5F3F4F3196283040
:10069000310589F740FF0AC041FF03C0FC016583B3
:1006A00002C0FC016683FC01618302C0FC0162831D
:1006B000DF91CF910895803A28E0920721F460E11C
:1006C00083E0BCCF0895803B28E0920721F460E2EC
:1006D00083E0B4CF0895803A29E0920721F460E1E5
:1006E00084E0ACCF0895803B29E0920721F460E2DA
:1006F00084E0A4CF0895803A2AE0920721F460E1D3
:1007000085E09CCF0895803A9B4019F460E186E033
:1007100095CF08950F931F93CF93DF9300D000D010
:10072000CDB7DEB709831A832B833C834D831E82AA
:10073000BE016F5F7F4FBAD02696CDBFDEBFDF917F
:10074000CF911F910F910895FB018081E82FE695CD
:10075000E695E69540E2E49FF0011124FA5F877088
:1007600021E030E0A90102C0440F551F8A95E2F74D
:1007700046830895FB018081E82FE695E695E6958E
:1007800040E2E49FF0011124FA5F877021E030E03D
:10079000A90102C0440F551F8A95E2F745830895C9
:1007A00043E050E061E080EE97E05EDF43E050E040
:1007B00062E080EE97E058DF43E050E060E180E6E1
:1007C00096E052DF41E050E460E280E696E04CDFE4
:1007D00040E05BE160E280E896E046DF40E05BE11C
:1007E00062E080EA96E040DF40E05BE164E080EABE
:1007F00096E03ADF43E050E062E080E696E034DFE6
:1008000043E050E068E080E696E02EDF43E050E011
:1008100068E080EA96E028DF43E050E061E080E6AF
:1008200096E022DF43E050E068E080E096E01CDFE5
:1008300041E050E060E180E896E016CF08951BBEED
:10084000FC0128ED24BF60830895CF92DF92EF92E0
:10085000FF920F931F93CF93DF93EC01D901C8014F
:10086000B695A79597958795481759076A077B0707
:1008700070F46A017B01CC0CDD1CEE1CFF1CC9016D
:10088000B801A7019601A8D22150310902C020E089
:1008900030E0832F8F708F832E83DF91CF911F9154
:1008A0000F91FF90EF90DF90CF900895DF92EF923D
:1008B000FF920F931F93CF93DF931F92CDB7DEB7B5
:1008C0007C018B01009709F4B2C1803C910521F4B1
:1008D00060E180E0B3DEABC180E8E81681E0F806B5
:1008E00021F462E080E0AADEA2C1E114E1E0FE06AC
:1008F00021F461E080E0A2DE9AC1F0E8EF16F3E0B7
:10090000FF0621F461E081E099DE91C130E9E31650
:1009100033E0F30621F461E082E090DE88C1E11467
:1009200082E0F80621F462E081E088DE80C1E0E444
:10093000EE16E2E0FE0621F462E082E07FDE77C19F
:10094000F0E2EF16F3E0FF0621F464E082E076DEE9
:100950006EC1E11438E0F30621F461E083E06EDE5D
:1009600066C1E11489E0F80621F461E084E066DE06
:100970005EC1E114EAE0FE0621F461E085E05EDE9E
:1009800056C1E114FBE0FF0621F461E086E056DE8B
:100990004EC130E4E31638E0F30621F462E083E070
:1009A0004DDE45C180E4E81689E0F80621F462E0F6
:1009B00084E044DE3CC1E0E4EE16EAE0FE0621F409
:1009C00062E085E03BDE33C1F0E9EF16F8E0FF06B8
:1009D00021F464E083E032DE2AC130E9E31639E035
:1009E000F30621F464E084E029DE21C180E9E81601
:1009F0008AE0F80621F464E085E020DE18C1E0E931
:100A0000EE16EBE0FE0621F464E086E017DE0FC18F
:100A1000F0ECEF16F8E0FF0621F468E083E00EDE6C
:100A200006C130ECE31639E0F30621F468E084E017
:100A300005DEFDC080EAE81688E0F80661F460E1B2
:100A400083E0FCDDE0EAF8E084818F7E8483F801B6
:100A5000248122504CC0F0EAEF16F9E0FF0621F4A1
:100A600060E184E0EBDDE3C030EAE3163AE0F30650
:100A700021F460E185E0E2DDDAC080EAE8168BE08F
:100A8000F80621F460E186E0D9DDD1C0E0EBEE1696
:100A9000E8E0FE0621F460E283E0D0DDC8C0F0EBC0
:100AA000EF16F9E0FF0621F460E284E0C7DDBFC085
:100AB00030E8E31634E0F30621F460E483E0BEDDC1
:100AC000B6C080EAE81684E0F80621F460E485E028
:100AD000B5DDADC0F70184818F7E8483FB01248165
:100AE0002250C701F0EAEF16F8E0FF0649F48091C2
:100AF0004E0684FDA5C00F2EF1E1DF2EF02DA4C01F
:100B0000803B38E0930791F0803AE9E09E0749F492
:100B100030916E0634FD9BC00F2EF9E1DF2EF02DD3
:100B200016C0803BF9E09F07F1F004C00F2EF5E1FD
:100B3000DF2EF02D803A3AE0930749F480918E063B
:100B400084FD8AC00F2EF1E2DF2EF02D15C0803A11
:100B50009B4091F48091AE0684FD0AC00F2EF9E20D
:100B6000DF2EF02D09C00F2EFDE1DF2EF02D04C089
:100B70000F2EFDE2DF2EF02DED2DE695E695E695A4
:100B800030E2E39FF0011124FA5F3D2D377081E0E0
:100B900090E0032E02C0880F991F0A94E2F7818328
:100BA000223010F040E001C040E4DF015096A30F76
:100BB000B11D9FB79983F89439812C9127702C939C
:100BC0009C91942B9C933FBF8583F7018581806C1A
:100BD0008583F80184818D7F813029F4F701858137
:100BE0008260858304C0F70185818D7F8583F8014C
:100BF0008581882329F0F70185818460858304C07D
:100C0000F70185818B7F8583F80140815181628165
:100C1000738100E012E12AE730E0C70116DEF70138
:100C20008481886084838481806184831AC0F70111
:100C300084818F7E8483F80124812250C70160CF94
:100C40000F2EF5E1DF2EF02D80EA98E06ACF0F2E0F
:100C5000FDE1DF2EF02D7BCF0F2EF5E2DF2EF02D04
:100C60008BCF0F90DF91CF911F910F91FF90EF905D
:100C7000DF9008951F93CF93DF931F92CDB7DEB718
:100C8000182F8BE28983BE016F5F7F4F80EA99E066
:100C90005BDD81E080936606E0EAF9E0818185FF13
:100CA000FDCF1093A009E0EAF9E0818186FFFDCF36
:100CB000E0EAF9E080E481838081BE016F5F7F4FCD
:100CC00080EA99E057DD0F90DF91CF911F91089551
:100CD0002F923F924F925F926F927F928F929F924C
:100CE000AF92BF92CF92DF92EF92FF920F931F933A
:100CF000CF93DF931F92CDB7DEB752DD66DC80E184
:100D0000809385069EDA80EBB5DF80E1B3DF80E07B
:100D1000B1DF0F2EF0E0EF2EF0E2FF2EF02D0F2EC0
:100D2000F0E68F2EF0E29F2EF02D00EA19E00F2E54
:100D3000F0E6CF2EF6E0DF2EF02D55245394602EF2
:100D4000712E6894332436F80F2EFBE24F2EF02DCF
:100D500028C0F7012080F2E0EF0EF11C4982BE01AD
:100D60006F5F7F4F862D972DEFDCF6015582F801DE
:100D7000818185FFFCCF2082F801818186FFFCCF35
:100D800031828081F6015682BE016F5F7F4F862DD2
:100D9000972DF0DCEA14FB04E1F675018A149B043C
:100DA00029F05701FCE0AF0EB11CD3CF80E090E0FA
:100DB0000F90DF91CF911F910F91FF90EF90DF90F7
:100DC000CF90BF90AF909F908F907F906F905F90EB
:100DD0004F903F902F900895A1E21A2EAA1BBB1BA3
:100DE000FD010DC0AA1FBB1FEE1FFF1FA217B307F7
:100DF000E407F50720F0A21BB30BE40BF50B661F0D
:100E0000771F881F991F1A9469F7609570958095D0
:100E100090959B01AC01BD01CF010895F894FFCFDF
:100E20003E00410041004100000000007F004900F9
:100E300049004900000000003E004100410041001F
:100E40000000000046004900490049003100000050
:100E50000000000000000000000000003C00220034
:100E60007F0020000000000042007F0040000000E2
:100E700000000000620051004D004600000000002C
:00000001FF
