:10000000FDC0000005C1000003C1000001C10000E7
:10001000FFC00000FDC00000FBC00000F9C00000F0
:10002000F7C00000F5C00000F3C00000F1C0000000
:10003000EFC00000EDC00000EBC00000E9C0000010
:10004000E7C00000E5C00000E3C00000E1C0000020
:10005000DFC00000DDC00000DBC00000D9C0000030
:10006000D7C00000D5C00000D3C00000D1C0000040
:10007000CFC00000CDC00000CBC00000C9C0000050
:10008000C7C00000C5C00000C3C00000C1C0000060
:10009000BFC00000BDC00000BBC00000B9C0000070
:1000A000B7C00000B5C00000B3C00000B1C0000080
:1000B000AFC00000ADC00000ABC00000A9C0000090
:1000C000A7C00000A5C00000A3C00000A1C00000A0
:1000D0009FC000009DC000009BC0000099C00000B0
:1000E00097C0000095C0000093C0000091C00000C0
:1000F0008FC000008DC000008BC0000089C00000D0
:1001000087C0000085C0000083C0000081C00000DF
:100110007FC000007DC000007BC0000079C00000EF
:1001200077C0000075C0000073C0000071C00000FF
:100130006FC000006DC000006BC0000069C000000F
:1001400067C0000065C0000063C0000061C000001F
:100150005FC000005DC000005BC0000059C000002F
:1001600057C0000055C0000053C0000051C000003F
:100170004FC000004DC000004BC0000049C000004F
:1001800047C0000045C0000043C0000041C000005F
:100190003FC000003DC000003BC0000039C000006F
:1001A00037C0000035C0000033C0000031C000007F
:1001B0002FC000002DC000002BC0000029C000008F
:1001C00027C0000025C0000023C0000021C000009F
:1001D0001FC000001DC000001BC0000019C00000AF
:1001E00017C0000015C0000013C0000011C00000BF
:1001F0000FC000000DC000000BC0000011241FBE86
:10020000CFEFCDBFDFE5DEBF00E00CBF5FD55EC640
:10021000F7CE04C06150710981099109611571051A
:1002200081059105B9F70895BF92CF92DF92EF92C1
:10023000FF920F931F93CF93DF931F92CDB7DEB73B
:1002400000E016E06894FF24F3F8F801F6826EE00F
:1002500070E080E090E0DDDFF801F5826EE070E0B4
:1002600080E090E0D6DF0F2EFBE2BF2EF02DB982AA
:1002700080EA99E013D2C12CD12C760100E412E47B
:100280002FE030E043E0BE016F5F7F4F80EA99E0EE
:1002900034D200E616E0FF24F394F801F682B98226
:1002A000BE016F5F7F4F80EA99E041D2F801F6828C
:1002B000E0EAF9E0818185FFFDCF80EA8093A00923
:1002C000E0EAF9E0818186FFFDCFE0EAF9E080E431
:1002D00081838081BE016F5F7F4F80EA99E03DD2CC
:1002E0008BE28983BE016F5F7F4F80EA99E01FD266
:1002F00081E080936606E0EAF9E0818185FFFDCF29
:1003000086EA8093A009E0EAF9E0818186FFFDCFCB
:10031000E0EAF9E080E481838081BE016F5F7F4F76
:1003200080EA99E01AD28BE28983BE016F5F7F4F2A
:1003300080EA99E0FCD181E080936606E0EAF9E08A
:10034000818185FFFDCF88EC8093A009E0EAF9E088
:10035000818186FFFDCFE0EAF9E080E4818380813E
:10036000BE016F5F7F4F80EA99E0F7D18BE289830E
:10037000BE016F5F7F4F80EA99E0D9D181E0809321
:100380006606E0EAF9E0818185FFFDCF82EA80938D
:10039000A009E0EAF9E0818186FFFDCFE0EAF9E01B
:1003A00080E481838081BE016F5F7F4F80EA99E0A6
:1003B000D4D18BE28983BE016F5F7F4F80EA99E0E1
:1003C000B6D181E080936606E0EAF9E0818185FF9D
:1003D000FDCF8FE28093A009E0EAF9E0818186FFFA
:1003E000FDCFE0EAF9E080E481838081BE016F5FA8
:1003F0007F4F80EA99E0B1D18BE28983BE016F5FC4
:100400007F4F80EA99E093D181E080936606E0EA2D
:10041000F9E0818185FFFDCF88EF8093A009E0EAB4
:10042000F9E0818186FFFDCFE0EAF9E080E4818395
:100430008081BE016F5F7F4F80EA99E08ED18BE2B1
:100440008983BE016F5F7F4F80EA99E070D181E0C0
:1004500080936606E0EAF9E0818185FFFDCF109286
:10046000A009E0EAF9E0818186FFFDCFE0EAF9E04A
:1004700080E481838081BE016F5F7F4F80EA99E0D5
:100480006CD18BE28983BE016F5F7F4F80EA99E078
:100490004ED181E080936606E0EAF9E0818185FF34
:1004A000FDCF81E28093A009E0EAF9E0818186FF37
:1004B000FDCFE0EAF9E080E481838081BE016F5FD7
:1004C0007F4F80EA99E049D18BE28983BE016F5F5B
:1004D0007F4F80EA99E02BD181E080936606E0EAC5
:1004E000F9E0818185FFFDCF81E88093A009E0EAF2
:1004F000F9E0818186FFFDCFE0EAF9E080E48183C5
:100500008081BE016F5F7F4F80EA99E026D18BE248
:100510008983BE016F5F7F4F80EA99E008D181E057
:1005200080936606E0EAF9E0818185FFFDCF81E2F4
:100530008093A009E0EAF9E0818186FFFDCFE0EA3F
:10054000F9E080E481838081BE016F5F7F4F80EAA4
:1005500099E003D18BE28983BE016F5F7F4F80EA10
:1005600099E0E5D081E080936606E0EAF9E08181D8
:1005700085FFFDCF8FEA8093A009E0EAF9E0818151
:1005800086FFFDCFE0EAF9E080E481838081BE014F
:100590006F5F7F4F80EA99E0E0D00F90DF91CF91BD
:1005A0001F910F91FF90EF90DF90CF90BF90089533
:1005B000CF93DF931F921F92CDB7DEB78FEF80935B
:1005C0007000809371008093720080937300809319
:1005D000740080937500809376006CE081E490E075
:1005E00021D18FB78A83F8949A81E0E5F0E0808189
:1005F000826080839FBF818181FFFDCF61E080E4C5
:1006000090E010D18FB78983F8949981E0E5F0E00C
:1006100080818E7F80839FBF0F900F90DF91CF915D
:100620000895CF93DF931F92CDB7DEB79FB799831D
:10063000F8949981E82FF0E0E059FF4F60958081B0
:10064000682360839FBF0F90DF91CF910895CF9370
:10065000DF93FC0120E030E0C62FD0E0DE01022E67
:1006600002C0B595A7950A94E2F7A0FD508B2F5FC5
:100670003F4F31962830310589F740FF0AC041FFCE
:1006800003C0FC01658302C0FC016683FC01618339
:1006900002C0FC016283DF91CF910895803A28E087
:1006A000920721F460E183E0BCCF0895803B28E00D
:1006B000920721F460E283E0B4CF0895803A29E004
:1006C000920721F460E184E0ACCF0895803B29E0FB
:1006D000920721F460E284E0A4CF0895803A2AE0F2
:1006E000920721F460E185E09CCF0895803A9B4019
:1006F00019F460E186E095CF08950F931F93CF938F
:10070000DF9300D000D0CDB7DEB709831A832B83E7
:100710003C834D831E82BE016F5F7F4FBAD0269609
:10072000CDBFDEBFDF91CF911F910F910895FB01E7
:100730008081E82FE695E695E69540E2E49FF0019A
:100740001124FA5F877021E030E0A90102C0440F54
:10075000551F8A95E2F746830895FB018081E82FB3
:10076000E695E695E69540E2E49FF0011124FA5FF4
:10077000877021E030E0A90102C0440F551F8A951F
:10078000E2F74583089543E050E061E080EE97E0B2
:100790005EDF43E050E062E080EE97E058DF43E048
:1007A00050E060E180E696E052DF41E050E460E234
:1007B00080E696E04CDF40E05BE160E280E896E0B6
:1007C00046DF40E05BE162E080EA96E040DF40E047
:1007D0005BE164E080EA96E03ADF43E050E062E00B
:1007E00080E696E034DF43E050E068E080E696E0A3
:1007F0002EDF43E050E068E080EA96E028DF43E047
:1008000050E061E080E696E022DF43E050E068E0FF
:1008100080E096E01CDF41E050E060E180E896E097
:1008200016CF08951BBEFC0128ED24BF60830895F8
:10083000CF92DF92EF92FF920F931F93CF93DF93AC
:10084000EC01D901C801B695A795979587954817EA
:1008500059076A077B0770F46A017B01CC0CDD1C29
:10086000EE1CFF1CC901B801A70196010DD3215050
:10087000310902C020E030E0832F8F708F832E83F8
:10088000DF91CF911F910F91FF90EF90DF90CF906C
:100890000895DF92EF92FF920F931F93CF93DF9310
:1008A0001F92CDB7DEB77C018B01009709F4B2C16E
:1008B000803C910521F460E180E0B3DEABC180E8CB
:1008C000E81681E0F80621F462E080E0AADEA2C129
:1008D000E114E1E0FE0621F461E080E0A2DE9AC1CD
:1008E000F0E8EF16F3E0FF0621F461E081E099DE25
:1008F00091C130E9E31633E0F30621F461E082E0D0
:1009000090DE88C1E11482E0F80621F462E081E023
:1009100088DE80C1E0E4EE16E2E0FE0621F462E04B
:1009200082E07FDE77C1F0E2EF16F3E0FF0621F40C
:1009300064E082E076DE6EC1E11438E0F30621F473
:1009400061E083E06EDE66C1E11489E0F80621F41F
:1009500061E084E066DE5EC1E114EAE0FE0621F4B7
:1009600061E085E05EDE56C1E114FBE0FF0621F4A4
:1009700061E086E056DE4EC130E4E31638E0F3066F
:1009800021F462E083E04DDE45C180E4E81689E0B1
:10099000F80621F462E084E044DE3CC1E0E4EE16B7
:1009A000EAE0FE0621F462E085E03BDE33C1F0E9D7
:1009B000EF16F8E0FF0621F464E083E032DE2AC19E
:1009C00030E9E31639E0F30621F464E084E029DE3F
:1009D00021C180E9E8168AE0F80621F464E085E0A8
:1009E00020DE18C1E0E9EE16EBE0FE0621F464E03B
:1009F00086E017DE0FC1F0ECEF16F8E0FF0621F4F9
:100A000068E083E00EDE06C130ECE31639E0F30661
:100A100021F468E084E005DEFDC080EAE81688E0A5
:100A2000F80661F460E183E0FCDDE0EAF8E084814F
:100A30008F7E8483F801248122504CC0F0EAEF16A7
:100A4000F9E0FF0621F460E184E0EBDDE3C030EA89
:100A5000E3163AE0F30621F460E185E0E2DDDAC076
:100A600080EAE8168BE0F80621F460E186E0D9DD43
:100A7000D1C0E0EBEE16E8E0FE0621F460E283E090
:100A8000D0DDC8C0F0EBEF16F9E0FF0621F460E21C
:100A900084E0C7DDBFC030E8E31634E0F30621F49C
:100AA00060E483E0BEDDB6C080EAE81684E0F806C4
:100AB00021F460E485E0B5DDADC0F70184818F7E6F
:100AC0008483FB0124812250C701F0EAEF16F8E08D
:100AD000FF0649F480914E0684FDA5C00F2EF1E17A
:100AE000DF2EF02DA4C0803B38E0930791F0803AD0
:100AF000E9E09E0749F430916E0634FD9BC00F2E4D
:100B0000F9E1DF2EF02D16C0803BF9E09F07F1F0F0
:100B100004C00F2EF5E1DF2EF02D803A3AE0930766
:100B200049F480918E0684FD8AC00F2EF1E2DF2EFB
:100B3000F02D15C0803A9B4091F48091AE0684FD63
:100B40000AC00F2EF9E2DF2EF02D09C00F2EFDE1B5
:100B5000DF2EF02D04C00F2EFDE2DF2EF02DED2D47
:100B6000E695E695E69530E2E39FF0011124FA5F01
:100B70003D2D377081E090E0032E02C0880F991F51
:100B80000A94E2F78183223010F040E001C040E493
:100B9000DF015096A30FB11D9FB79983F894398157
:100BA0002C9127702C939C91942B9C933FBF858311
:100BB000F7018581806C8583F80184818D7F813088
:100BC00029F4F70185818260858304C0F70185815E
:100BD0008D7F8583F8018581882329F0F701858140
:100BE0008460858304C0F70185818B7F8583F8014C
:100BF000408151816281738100E012E12AE730E097
:100C0000C70116DEF7018481886084838481806156
:100C100084831AC0F70184818F7E8483F801248144
:100C20002250C70160CF0F2EF5E1DF2EF02D80EAB4
:100C300098E06ACF0F2EFDE1DF2EF02D7BCF0F2E37
:100C4000F5E2DF2EF02D8BCF0F90DF91CF911F912A
:100C50000F91FF90EF90DF90089504C061507109EB
:100C6000810991096115710581059105B9F708950B
:100C70001F93CF93DF931F92CDB7DEB7182F8BE270
:100C80008983BE016F5F7F4F80EA99E050DD81E08C
:100C900080936606E0EAF9E0818185FFFDCF10933D
:100CA000A009E0EAF9E0818186FFFDCFE0EAF9E002
:100CB00080E481838081BE016F5F7F4F80EA99E08D
:100CC0004CDD0F90DF91CF911F910895CF93DF936B
:100CD0001F92CDB7DEB757DD6BDC80E180938506D0
:100CE000A3DA80EBC5DF80E1C3DF80E0C1DF612CE8
:100CF0000F2EFBE28F2EF02D00EA19E00F2EF0E60A
:100D0000CF2EF6E0DF2EF02DAA24A394E02EF12EB4
:100D10006894992496F80F2EFAEA7F2EF02D862DEE
:100D20008F70806BB82E8982BE016F5F7F4FC801C4
:100D3000FEDCF601A682F801818185FFFCCFB0823E
:100D4000F801818186FFFCCF91828081BE016F5FB7
:100D50007F4FC80102DDB12C8B2D8F7782958F706C
:100D60008061582E8982BE016F5F7F4F8E2D9F2D2F
:100D7000DEDCF601A682F801818185FFFCCF50827E
:100D8000F801818186FFFCCF91828081BE016F5F77
:100D90007F4F8E2D9F2DE1DCFB2DFF705F2E898212
:100DA000BE016F5F7F4F8E2D9F2DC1DCF601A682A5
:100DB000F801818185FFFCCF5082F801818186FF97
:100DC000FCCF91828081BE016F5F7F4F8E2D9F2D62
:100DD000C4DC8982BE016F5F7F4F8E2D9F2DA7DC03
:100DE000F601A582F801818185FFFCCF7082F801B0
:100DF000818186FFFCCF91828081F601A682BE01AF
:100E00006F5F7F4F8E2D9F2DA8DCB394F0E8BF124B
:100E1000A3CF639485E0681282CF80E00F2EFBE2BF
:100E20009F2EF02D00EA19E00F2EF0E6CF2EF6E00F
:100E3000DF2EF02DAA24A3946894BB24B6F8EE24E8
:100E4000E394E80E8F738064F82E9982BE016F5F81
:100E50007F4FC8016CDCF601A682F801818185FF15
:100E6000FCCFF082F801818186FFFCCFB1828081C6
:100E7000BE016F5F7F4FC80170DC66E176E185E0FF
:100E800090E0EBDE8E2DDBCFA1E21A2EAA1BBB1B5E
:100E9000FD010DC0AA1FBB1FEE1FFF1FA217B30746
:100EA000E407F50720F0A21BB30BE40BF50B661F5C
:100EB000771F881F991F1A9469F760957095809520
:100EC00090959B01AC01BD01CF010895F894FFCF2F
:00000001FF
