S00D000050617274332E737265634D
S113000038C1000057C1000055C1000053C10000B1
S113001051C100004FC100004DC100004BC10000A0
S113002049C1000047C1000045C1000043C10000B0
S113003041C100003FC100003DC100003BC10000C0
S113004039C1000037C1000035C1000033C10000D0
S113005031C100002FC100002DC100002BC10000E0
S113006029C1000027C1000025C1000023C10000F0
S113007021C100001FC100001DC100001BC1000000
S113008019C1000017C1000015C1000013C1000010
S113009011C100000FC100000DC100000BC1000020
S11300A009C1000007C1000005C1000003C1000030
S11300B001C10000FFC00000FDC00000FBC0000043
S11300C0F9C00000F7C00000F5C00000F3C0000054
S11300D0F1C00000EFC00000EDC00000EBC0000064
S11300E0E9C00000E7C00000E5C00000E3C0000074
S11300F0E1C00000DFC00000DDC00000DBC0000084
S1130100D9C00000D7C00000D5C00000D3C0000093
S1130110D1C00000CFC00000CDC00000CBC00000A3
S1130120C9C00000C7C00000C5C00000C3C00000B3
S1130130C1C00000BFC00000BDC00000BBC00000C3
S1130140B9C00000B7C00000B5C00000B3C00000D3
S1130150B1C00000AFC00000ADC00000ABC00000E3
S1130160A9C00000A7C00000A5C00000A3C00000F3
S1130170A1C000009FC000009DC000009BC0000003
S113018099C0000097C0000095C0000093C0000013
S113019091C000008FC000008DC000008BC0000023
S11301A089C0000087C0000085C0000083C0000033
S11301B081C000007FC000007DC000007BC0000043
S11301C079C0000077C0000075C0000073C0000053
S11301D071C000006FC000006DC000006BC0000063
S11301E069C0000067C0000065C0000063C0000073
S11301F061C000005FC000005DC000002A0957090B
S113020057095709570957095709570957095709EA
S113021057095709570957094B09570948092D091F
S113022030093309360939093C093F0942094509AE
S11302305709570957095709570957095709DC0836
S1130240DF08E208E508E808EB08EE08F108F4081E
S1130250F708FA08FD0800090309060909090C0949
S11302600F091209150918091B091E092109240976
S1130270270911241FBECFEFCDBFDFE5DEBF00E0AD
S11302800CBF11E2A0E0B0E2E2EEF6E100E00BBF49
S113029002C007900D92A83DB107D9F721E2A8ED5D
S11302A0B1E201C01D92AB3DB207E1F70E94120B0F
S11302B00C946F0BA5CE04C061507109810991099A
S11302C06115710581059105B9F70895BF92CF9223
S11302D0DF92EF92FF920F931F93CF93DF931F92BE
S11302E0CDB7DEB700E016E06894FF24F3F8F80118
S11302F0F6826EE070E080E090E0DDDFF801F582E8
S11303006EE070E080E090E0D6DF0F2EFBE2BF2EBF
S1130310F02DB98280EA99E013D2C12CD12C760158
S113032000E412E42FE030E043E0BE016F5F7F4F52
S113033080EA99E034D200E616E0FF24F394F80151
S1130340F682B982BE016F5F7F4F80EA99E041D2A5
S1130350F801F682E0EAF9E0818185FFFDCF80EAC9
S11303608093A009E0EAF9E0818186FFFDCFE0EA0D
S1130370F9E080E481838081BE016F5F7F4F80EA72
S113038099E03DD28BE28983BE016F5F7F4F80EAA3
S113039099E01FD281E080936606E0EAF9E081816A
S11303A085FFFDCF86EA8093A009E0EAF9E0818128
S11303B086FFFDCFE0EAF9E080E481838081BE011D
S11303C06F5F7F4F80EA99E01AD28BE28983BE0186
S11303D06F5F7F4F80EA99E0FCD181E080936606ED
S11303E0E0EAF9E0818185FFFDCF88EC8093A009E4
S11303F0E0EAF9E0818186FFFDCFE0EAF9E080E4FC
S113040081838081BE016F5F7F4F80EA99E0F7D1DD
S11304108BE28983BE016F5F7F4F80EA99E0D9D177
S113042081E080936606E0EAF9E0818185FFFDCFF3
S113043082EA8093A009E0EAF9E0818186FFFDCF9A
S1130440E0EAF9E080E481838081BE016F5F7F4F41
S113045080EA99E0D4D18BE28983BE016F5F7F4F3C
S113046080EA99E0B6D181E080936606E0EAF9E09B
S1130470818185FFFDCF8FE28093A009E0EAF9E056
S1130480818186FFFDCFE0EAF9E080E48183808109
S1130490BE016F5F7F4F80EA99E0B1D18BE289831F
S11304A0BE016F5F7F4F80EA99E093D181E0809332
S11304B06606E0EAF9E0818185FFFDCF88EF80934D
S11304C0A009E0EAF9E0818186FFFDCFE0EAF9E0E6
S11304D080E481838081BE016F5F7F4F80EA99E071
S11304E08ED18BE28983BE016F5F7F4F80EA99E0F2
S11304F070D181E080936606E0EAF9E0818185FFAE
S1130500FDCF1092A009E0EAF9E0818186FFFDCFDA
S1130510E0EAF9E080E481838081BE016F5F7F4F70
S113052080EA99E06CD18BE28983BE016F5F7F4FD3
S113053080EA99E04ED181E080936606E0EAF9E032
S1130540818185FFFDCF81E28093A009E0EAF9E093
S1130550818186FFFDCFE0EAF9E080E48183808138
S1130560BE016F5F7F4F80EA99E049D18BE28983B6
S1130570BE016F5F7F4F80EA99E02BD181E08093C9
S11305806606E0EAF9E0818185FFFDCF81E880938A
S1130590A009E0EAF9E0818186FFFDCFE0EAF9E015
S11305A080E481838081BE016F5F7F4F80EA99E0A0
S11305B026D18BE28983BE016F5F7F4F80EA99E089
S11305C008D181E080936606E0EAF9E0818185FF45
S11305D0FDCF81E28093A009E0EAF9E0818186FF02
S11305E0FDCFE0EAF9E080E481838081BE016F5FA2
S11305F07F4F80EA99E003D18BE28983BE016F5F6C
S11306007F4F80EA99E0E5D081E080936606E0EAD6
S1130610F9E0818185FFFDCF8FEA8093A009E0EAAC
S1130620F9E0818186FFFDCFE0EAF9E080E481838F
S11306308081BE016F5F7F4F80EA99E0E0D00F9028
S1130640DF91CF911F910F91FF90EF90DF90CF90AA
S1130650BF900895CF93DF931F921F92CDB7DEB75B
S11306608FEF809370008093710080937200809369
S113067073008093740080937500809376006CE01F
S113068081E490E021D18FB78A83F8949A81E0E5E0
S1130690F0E08081826080839FBF818181FFFDCFF4
S11306A061E080E490E010D18FB78983F894998158
S11306B0E0E5F0E080818E7F80839FBF0F900F90F4
S11306C0DF91CF910895CF93DF931F92CDB7DEB71B
S11306D09FB79983F8949981E82FF0E0E059FF4F90
S11306E060958081682360839FBF0F90DF91CF91D5
S11306F00895CF93DF93FC0120E030E0C62FD0E0D3
S1130700DE01022E02C0B595A7950A94E2F7A0FD7A
S1130710508B2F5F3F4F31962830310589F740FFCA
S11307200AC041FF03C0FC01658302C0FC0166836B
S1130730FC01618302C0FC016283DF91CF910895C3
S1130740803A28E0920721F460E183E0BCCF089569
S1130750803B28E0920721F460E283E0B4CF08955F
S1130760803A29E0920721F460E184E0ACCF089557
S1130770803B29E0920721F460E284E0A4CF08954D
S1130780803A2AE0920721F460E185E09CCF089545
S1130790803A9B4019F460E186E095CF08950F9369
S11307A01F93CF93DF9300D000D0CDB7DEB709837A
S11307B01A832B833C834D831E82BE016F5F7F4F60
S11307C0E8D22696CDBFDEBFDF91CF911F910F9166
S11307D00895FB018081E82FE695E695E69540E2D1
S11307E0E49FF0011124FA5F877021E030E0A90151
S11307F002C0440F551F8A95E2F746830895FB0112
S11308008081E82FE695E695E69540E2E49FF001C5
S11308101124FA5F877021E030E0A90102C0440F7F
S1130820551F8A95E2F74583089543E050E061E05F
S113083080EE97E05EDF43E050E062E080EE97E018
S113084058DF43E050E060E180E696E052DF41E0AB
S113085050E460E280E696E04CDF40E05BE160E279
S113086080E896E046DF40E05BE162E080EA96E003
S113087040DF40E05BE164E080EA96E03ADF43E099
S113088050E062E080E696E034DF43E050E068E068
S113089080E696E02EDF43E050E068E080EA96E0F0
S11308A028DF43E050E061E080E696E022DF43E0A9
S11308B050E068E080E096E01CDF41E050E060E159
S11308C080E896E016CF08951BBEFC0128ED24BFF6
S11308D060830895FC01918195FFFDCF608380E0E2
S11308E090E00895FC0191819923ECF780810895AB
S11308F04F925F926F927F928F929F92AF92BF922C
S1130900EF92FF920F931F93CF937C014A015B01F7
S113091028013901FC01848182FF16C0D901C80174
S1130920689412F8B695A795979587951694D1F77C
S1130930B901A801032E36E1769567955795479539
S11309403A95D1F7302D15C0D901C801689413F830
S1130950B695A795979587951694D1F7B901A801EF
S1130960032E37E176956795579547953A95D1F7D4
S1130970302D88159905AA05BB0508F4A2C0841674
S11309809506A606B70608F49EC0F701848182FD89
S113099004C0880C991CAA1CBB1CC301B201A5018C
S11309A0940173D62F3F31054105510508F48DC0DC
S11309B08FEF90E0A0E0B0E0C9EF05C02817390739
S11309C04A075B0758F0880F991FAA1FBB1FCD3F2A
S11309D00CF48160CF5FC73089F74DC0CC230CF095
S11309E04AC0D501C401880F991FAA1FBB1F880FD5
S11309F0991FAA1FBB1F880F991FAA1FBB1F481A44
S1130A00590A6A0A7B0ACE3FECF48DEF9FEF8C1BE8
S1130A109109C7FD939504C0440C551C661C771CB2
S1130A208A95D2F7D501C401B695A7959795879570
S1130A30BC01CD01640D751D861D971DA501940192
S1130A4024D635C083E08C0FA501940104C0220F85
S1130A50331F441F551F8A95D2F7DA01C901B69591
S1130A60A79597958795BC01CD01640D751D861DCD
S1130A70971D0BD61CC083E08C0FA501940104C004
S1130A80220F331F441F551F8A95D2F7DA01C9017B
S1130A90B695A79597958795BC01CD01640D751DF5
S1130AA0861D971DF2D52150310941095109832F23
S1130AB08F70C295C07FC82BF701C783268381E05E
S1130AC018C080E016C080E014C0D501C401880FAE
S1130AD0991FAA1FBB1F880F991FAA1FBB1F880F2E
S1130AE0991FAA1FBB1F481A590A6A0A7B0AC9EF31
S1130AF08CCFCF911F910F91FF90EF90BF90AF904B
S1130B009F908F907F906F905F904F9008950F9378
S1130B101F93CF93DF93EC018B01009709F4E6C098
S1130B20803C910521F460E180E0CDDDDFC0C03878
S1130B3081E0D80721F462E080E0C5DDD7C0C115AB
S1130B40E1E0DE0721F461E080E0BDDDCFC0C03824
S1130B50F3E0DF0721F461E081E0B5DDC7C0C0390F
S1130B6083E0D80721F461E082E0ADDDBFC0C115A8
S1130B70E2E0DE0721F462E081E0A5DDB7C0C03425
S1130B80F2E0DF0721F462E082E09DDDAFC0C03215
S1130B9083E0D80721F464E082E095DDA7C0C115A5
S1130BA0E8E0DE0721F461E083E08DDD9FC0C1153C
S1130BB0F9E0DF0721F461E084E085DD97C0C11529
S1130BC08AE0D80721F461E085E07DDD8FC0C1159E
S1130BD0EBE0DE0721F461E086E075DD87C0C03418
S1130BE0F8E0DF0721F462E083E06DDD7FC0C0340C
S1130BF089E0D80721F462E084E065DD77C0C03481
S1130C00EAE0DE0721F462E085E05DDD6FC0C03913
S1130C10F8E0DF0721F464E083E055DD67C0C03904
S1130C2089E0D80721F464E084E04DDD5FC0C03979
S1130C30EAE0DE0721F464E085E045DD57C0C03911
S1130C40FBE0DF0721F464E086E03DDD4FC0C03CFB
S1130C5088E0D80721F468E083E035DD47C0C03C74
S1130C60E9E0DE0721F468E084E02DDD3FC0C03A0E
S1130C70F8E0DF0721F460E183E025DD37C0C03A06
S1130C8089E0D80721F460E184E01DDD2FC0C03A7B
S1130C90EAE0DE0721F460E185E015DD27C0C03A13
S1130CA0FBE0DF0721F460E186E00DDD1FC0C03BFF
S1130CB088E0D80721F460E283E005DD17C0C03B7B
S1130CC0E9E0DE0721F460E284E0FDDC0FC0C03817
S1130CD0F4E0DF0721F460E483E0F5DC07C0C03A08
S1130CE084E0D80719F460E485E0EDDC8D818F732E
S1130CF08D83F80195818481892B9681911198E0E7
S1130D00892B8D83F801408151816281738100E0D8
S1130D1012E12AE730E0CE01EBDD9C8198609C83F0
S1130D209C8190619C83DF91CF911F910F910895D5
S1130D30CF92DF92EF92FF920F931F93CF93DF93A3
S1130D40EC01D901C801B695A795979587954817E1
S1130D5059076A077B0770F46A017B01CC0CDD1C20
S1130D60EE1CFF1CC901B801A70196018ED42150C5
S1130D70310902C020E030E0832F8F708F832E83EF
S1130D80DF91CF911F910F91FF90EF90DF90CF9063
S1130D900895DF92EF92FF920F931F93CF93DF9307
S1130DA01F92CDB7DEB77C018B01009709F4B2C165
S1130DB0803C910521F460E180E085DCABC180E8F2
S1130DC0E81681E0F80621F462E080E07CDCA2C150
S1130DD0E114E1E0FE0621F461E080E074DC9AC1F4
S1130DE0F0E8EF16F3E0FF0621F461E081E06BDC4C
S1130DF091C130E9E31633E0F30621F461E082E0C7
S1130E0062DC88C1E11482E0F80621F462E081E04A
S1130E105ADC80C1E0E4EE16E2E0FE0621F462E072
S1130E2082E051DC77C1F0E2EF16F3E0FF0621F433
S1130E3064E082E048DC6EC1E11438E0F30621F49A
S1130E4061E083E040DC66C1E11489E0F80621F446
S1130E5061E084E038DC5EC1E114EAE0FE0621F4DE
S1130E6061E085E030DC56C1E114FBE0FF0621F4CB
S1130E7061E086E028DC4EC130E4E31638E0F30696
S1130E8021F462E083E01FDC45C180E4E81689E0D8
S1130E90F80621F462E084E016DC3CC1E0E4EE16DE
S1130EA0EAE0FE0621F462E085E00DDC33C1F0E9FE
S1130EB0EF16F8E0FF0621F464E083E004DC2AC1C5
S1130EC030E9E31639E0F30621F464E084E0FBDB67
S1130ED021C180E9E8168AE0F80621F464E085E09F
S1130EE0F2DB18C1E0E9EE16EBE0FE0621F464E063
S1130EF086E0E9DB0FC1F0ECEF16F8E0FF0621F421
S1130F0068E083E0E0DB06C130ECE31639E0F30689
S1130F1021F468E084E0D7DBFDC080EAE81688E0CD
S1130F20F80661F460E183E0CEDBE0EAF8E0848176
S1130F308F7E8483F801248122504CC0F0EAEF169E
S1130F40F9E0FF0621F460E184E0BDDBE3C030EAB0
S1130F50E3163AE0F30621F460E185E0B4DBDAC09D
S1130F6080EAE8168BE0F80621F460E186E0ABDB6A
S1130F70D1C0E0EBEE16E8E0FE0621F460E283E087
S1130F80A2DBC8C0F0EBEF16F9E0FF0621F460E243
S1130F9084E099DBBFC030E8E31634E0F30621F4C3
S1130FA060E483E090DBB6C080EAE81684E0F806EB
S1130FB021F460E485E087DBADC0F70184818F7E96
S1130FC08483FB0124812250C701F0EAEF16F8E084
S1130FD0FF0649F480914E0684FDA5C00F2EF1E171
S1130FE0DF2EF02DA4C0803B38E0930791F0803AC7
S1130FF0E9E09E0749F430916E0634FD9BC00F2E44
S1131000F9E1DF2EF02D16C0803BF9E09F07F1F0E7
S113101004C00F2EF5E1DF2EF02D803A3AE093075D
S113102049F480918E0684FD8AC00F2EF1E2DF2EF2
S1131030F02D15C0803A9B4091F48091AE0684FD5A
S11310400AC00F2EF9E2DF2EF02D09C00F2EFDE1AC
S1131050DF2EF02D04C00F2EFDE2DF2EF02DED2D3E
S1131060E695E695E69530E2E39FF0011124FA5FF8
S11310703D2D377081E090E0032E02C0880F991F48
S11310800A94E2F78183223010F040E001C040E48A
S1131090DF015096A30FB11D9FB79983F89439814E
S11310A02C9127702C939C91942B9C933FBF858308
S11310B0F7018581806C8583F80184818D7F81307F
S11310C029F4F70185818260858304C0F701858155
S11310D08D7F8583F8018581882329F0F701858137
S11310E08460858304C0F70185818B7F8583F80143
S11310F0408151816281738100E012E12AE730E08E
S1131100C70116DEF701848188608483848180614D
S113111084831AC0F70184818F7E8483F80124813B
S11311202250C70160CF0F2EF5E1DF2EF02D80EAAB
S113113098E06ACF0F2EFDE1DF2EF02D7BCF0F2E2E
S1131140F5E2DF2EF02D8BCF0F90DF91CF911F9121
S11311500F91FF90EF90DF90089504C061507109E2
S1131160810991096115710581059105B9F7089502
S1131170FC018D30910509F491C0815691094F9776
S113118008F4B097CF01C0978B32910508F089C05D
S11311900A97079708F488C08E2FEE0F990BAA0BB5
S11311A0BB0BFC01B097EB33F10508F080C0882736
S11311B0E250FF4F8F4F8BC280E090E0089581E0B2
S11311C090E0089582E090E0089583E090E008952F
S11311D084E090E0089585E090E0089586E090E052
S11311E0089587E090E0089588E090E0089589E00C
S11311F090E008958AE090E008958BE090E00895EF
S11312008CE090E008958DE090E008958EE090E009
S113121008958FE090E0089580E190E0089581E1E1
S113122090E0089582E190E0089583E190E00895CC
S113123084E190E0089585E190E0089586E190E0EE
S1131240089587E190E0089588E190E0089589E1A8
S113125090E008958AE190E008958BE190E008958C
S11312608CE190E008958DE190E008958EE190E0A6
S113127008958FE190E0089580E290E0089581E27E
S113128090E0089582E290E0089583E290E008956A
S113129084E290E0089585E290E0089584E690E089
S11312A008958AE190E008958AE190E0089580E04D
S11312B090E00895CF93DF931F92CDB7DEB78BE212
S11312C08983BE016F5F7F4F80EA99E082DA81E013
S11312D080936606E0EAF9E0818185FFFDCF8EEE1A
S11312E08093A009E0EAF9E0818186FFFDCFE0EA7E
S11312F0F9E080E481838081BE016F5F7F4F80EAE3
S113130099E07DDA8BE28983BE016F5F7F4F80EACB
S113131099E05FDA81E080936606E0EAF9E0818192
S113132085FFFDCF80EB8093A009E0EAF9E081819D
S113133086FFFDCFE0EAF9E080E481838081BE018D
S11313406F5F7F4F80EA99E05ADA8BE28983BE01AE
S11313506F5F7F4F80EA99E03CDA81E08093660614
S1131360E0EAF9E0818185FFFDCF80E18093A00967
S1131370E0EAF9E0818186FFFDCFE0EAF9E080E46C
S113138081838081BE016F5F7F4F80EA99E037DA05
S11313908BE28983BE016F5F7F4F80EA99E019DA9F
S11313A081E080936606E0EAF9E0818185FFFDCF64
S11313B01092A009E0EAF9E0818186FFFDCFE0EA1E
S11313C0F9E080E481838081BE016F5F7F4F80EA12
S11313D099E015DA0F90DF91CF9108956F927F9283
S11313E08F929F92AF92BF92CF92DF92EF92FF9231
S11313F00F931F93CF93DF931F92CDB7DEB7182FB0
S113140080E180938606153209F0F8C08091D821D6
S113141098E0980F9093D82107E0080F0F730064A9
S11314208BE28983BE016F5F7F4F80EA99E0D1D957
S113143081E080936606E0EAF9E0818185FFFDCFD3
S11314400093A009E0EAF9E0818186FFFDCFE0EA9C
S1131450F9E080E481838081BE016F5F7F4F80EA81
S113146099E0CDD98BE28983BE016F5F7F4F80EA1B
S113147099E0AFD981E080936606E0EAF9E08181E2
S113148085FFFDCF80E18093A009E0EAF9E0818146
S113149086FFFDCFE0EAF9E080E481838081BE012C
S11314A06F5F7F4F80EA99E0AAD98BE28983BE01FE
S11314B06F5F7F4F80EA99E08CD981E08093660664
S11314C0E0EAF9E0818185FFFDCF1092A009E0EA0E
S11314D0F9E0818186FFFDCFE0EAF9E080E48183D1
S11314E08081BE016F5F7F4F80EA99E088D9809147
S11314F0DA218F5F8093DA218F70082F006B8BE2E3
S11315008983BE016F5F7F4F80EA99E062D981E0F1
S113151080936606E0EAF9E0818185FFFDCF0093C0
S1131520A009E0EAF9E0818186FFFDCFE0EAF9E075
S113153080E481838081BE016F5F7F4F80EA99E000
S11315405ED902C0B7DE51C0812F90E07C01EE0C61
S1131550FF1CE80EF91E9701220F331F220F331FC1
S1131560A901455E5F4D7A0101966C01CC0CDD1C2E
S11315708C0D9D1D880F991F880F991FFC01E55E36
S1131580FF4D6F010F2EFBE26F2EF02D00EA19E0E4
S11315900F2EF0E6AF2EF6E0BF2EF02D9924939493
S11315A06894772476F8F7018080F2E0EF0EF11C5E
S11315B06982BE016F5F7F4FC8010BD9F501958227
S11315C0F801818185FFFCCF8082F801818186FF4B
S11315D0FCCF71828081F5019682BE016F5F7F4FDF
S11315E0C8010DD9EC14FD04F1F666ED78E082E053
S11315F090E0B3DD80E18093850604C0143609F0E1
S1131600A3CFA0CF0F90DF91CF911F910F91FF90A7
S1131610EF90DF90CF90BF90AF909F908F907F908E
S11316206F900895CF93DF93CDB7DEB76497CDBFA6
S1131630DEBFFBD80FD880E1809385060E94660147
S113164060E070E280EA98E062DA84E1E7E0F0E2E8
S1131650DE01119601900D928A95E1F78E010F5FDC
S11316601F4F7E0181E8E80EF11CF80161918F01A2
S113167080EA98E02FD90E151F05B9F780EA98E0A3
S113168031D990E075DDAADEF9CFA1E21A2EAA1BAA
S1131690BB1BFD010DC0AA1FBB1FEE1FFF1FA2171E
S11316A0B307E407F50720F0A21BB30BE40BF50B1B
S11316B0661F771F881F991F1A9469F760957095A4
S11316C0809590959B01AC01BD01CF010895EE0F6B
S11316D0FF1F881F8BBF0790F691E02D1994F89493
S10516E0FFCF36
S11316E2802500000300000A0D456E7465722061B6
S11316F2206D6573736167653A20007E00090009F5
S11317020009007E0000007F004900490036000005
S11317120000003E00410041004100000000007F43
S1131722004100410041003E0000007F00490049A1
S1131732004900000000007F0009000900090000C0
S11317420000003F00410049007900000000007FD2
S1131752000800080008007F000000000041007F2C
S113176200410000000000600041007F0001000011
S11317720000007F00080004000A00710000007FDE
S113178200400040004000000000007F000200040E
S11317920002007F0000007F000200040008007FB6
S11317A20000003E004100410041003E0000007F75
S11317B200090009000900060000003E0041006122
S11317C2007E00800000007F000900190029004605
S11317D200000046004900490049003100000001B0
S11317E20001007F000100010000003F00400040B2
S11317F2003F000000000007001800600018000706
S11318020000007F008000700080007F0000006301
S113181200140008001400630000000300040078B0
S113182200040003000000310029002500230021E8
S11318320000000000000000000000000000004260
S1131842007F004000000000000000620051004DD3
S113185200460000000000410045004B003100003A
S11318620000003C0022007F00200000000000472E
S113187200450045003900000000007E004900498F
S1131882003100000000000100790005000300009F
S11318920000003E00490049003E0000000000062E
S11318A200090009007F00000000007F00410041A0
S10B18B2007F000000000000AB
S9030000FC
